:1000000012C02AC029C028C027C026C026C024C0CC
:1000100023C022C021C020C01FC01EC01DC01CC0E4
:100020001BC01AC019C011241FBECFEDCDBF10E0F8
:10003000A0E6B0E0E0E7F1E002C005900D92A8373D
:10004000B107D9F710E0A8E7B0E001C01D92A937C9
:10005000B107E1F77DD08AC0D3CF1F920F920FB6C0
:100060000F9211248F939F93EF93FF9380917800C9
:100070008F5F8093780080917800811108C08FEFA6
:1000800088BB809160008F5F817180936000909148
:100090007800E0916000F0E0E859FF4F8081891717
:1000A00008F4C09890917800E0916100F0E0E85980
:1000B000FF4F8081891708F4C19890917800E091F2
:1000C0006200F0E0E859FF4F8081891708F4C29878
:1000D00090917800E0916300F0E0E859FF4F808153
:1000E000891708F4C39890917800E0916400F0E0DB
:1000F000E859FF4F8081891708F4C49890917800DF
:10010000E0916500F0E0E859FF4F8081891708F41D
:10011000C59890917800E0916600F0E0E859FF4FB3
:100120008081891708F4C69890917800E091670063
:10013000F0E0E859FF4F8081891708F4C798FF91D4
:10014000EF919F918F910F900FBE0F901F90189578
:1001500083B7816083BF89B7826089BF8FEF87BB18
:1001600090E491BB88BB96987894FFCFF894FFCF2A
:1001700000020406080B0E100002030406080B1010
:0801800017202D405A80B5FF45
:00000001FF
