:1000000012C02AC029C028C027C026C025C024C0CD
:1000100023C022C021C020C01FC01EC01DC01CC0E4
:100020001BC01AC019C011241FBECFEDCDBF10E0F8
:10003000A0E6B0E0EAEDF0E002C005900D92A03736
:10004000B107D9F710E0A0E7B0E001C01D92A237D8
:10005000B107E1F702D03FC0D3CF8FEF87BB80E479
:1000600081BB18BA969880E090E01FD0C82F682F07
:100070006F5F6F7080E090E020D0C09371009FEFC1
:1000800080917000811104C020917100211198BBF2
:100090008F5F80937000E0917100F0E0E05AFF4FB5
:1000A0002081281768F718BAEBCFE199FECF1FBA65
:1000B0008EBBE09A99278DB30895262FE199FECF44
:1000C0001CBA1FBA8EBB2DBB0FB6F894E29AE19A08
:0A00D0000FBE01960895F894FFCFCB
:1000DA000002030406080B1017202D405A80B5FFB2
:00000001FF
