:1000000012C02AC029C028C027C026C025C024C0CD
:1000100023C022C021C020C01FC01EC01DC01CC0E4
:100020001BC01AC019C011241FBECFEDCDBF10E0F8
:10003000A0E6B0E0E2E8F1E002C005900D92A03742
:10004000B107D9F710E0A0E7B0E001C01D92A237D8
:10005000B107E1F739D093C0D3CFCF93DF931F928D
:10006000CDB7DD2780E090E074D0898389818F5FF0
:100070008F70682F80E090E074D089810F90DF91BD
:10008000CF910895CF93DF93CDB7DD2787E390E03D
:100090002FEFFC01208381E390E020E4FC0120832A
:1000A00088E390E02FEFFC01208382E390E022E3DD
:1000B00030E0F90120812F7BFC012083CEDF80938B
:1000C0007100DF91CF910895CF93DF9300D0CDB72A
:1000D000DD27D8DF80917000882349F4809171007A
:1000E000882329F088E390E02FEFFC0120838091A2
:1000F00070008F5F809370001A82198224C08091F3
:100100007100882F90E0805A9F4FFC019081809170
:100110007000891798F088E390E028E330E0F90157
:100120002081422F21E030E0098002C0220F331FDE
:100130000A94E2F720952423FC01208389819A8187
:1001400001969A83898389819A8188309105BCF2CE
:10015000C1CFE199FECF1FBA8EBBE09A99278DB32C
:100160000895262FE199FECF1CBA1FBA8EBB2DBB76
:100170000FB6F894E29AE19A0FBE01960895F894AA
:02018000FFCFAF
:100182000002030406080B1017202D405A80B5FF09
:00000001FF
